:020000040800F2
:1000000060290020450100082D1600086110000835
:1000100029160008050A00088F26000800000000C5
:10002000000000000000000000000000391B000874
:100030002D0B000800000000A30900089518000817
:100040005F0100085F0100085F0100085F01000810
:100050005F0100085F0100085F0100085F01000800
:100060005F0100085F0100085F0100085F010008F0
:100070005F0100085F0100085F0100085F010008E0
:100080005F0100085F0100085F0100085F010008D0
:100090005F0100085F0100085F010008BD0C000857
:1000A0005F0100085F0100085F0100085F010008B0
:1000B0005F0100085F010008E51D00085F010008FE
:1000C0005F0100085F0100085F0100085F01000890
:1000D0005F010008B51F000831210008C92200088F
:1000E000D90B00085F0100085F0100085F010008EC
:1000F0005F0100085F0100085F0100085F01000860
:100100005F0100085F0100085F0100085F0100084F
:100110005F0100085F0100085F0100085F0100083F
:100120005F0100085F0100085F0100085F0100082F
:10013000DFF80CD000F0F6FA004800470D35000853
:10014000602900200648804706480047FEE7FEE792
:10015000FEE7FEE7FEE7FEE7FEE7FEE7FEE7FEE777
:10016000311D00083101000872B6704762B6704751
:10017000EFF3108072B6704780F31088704730BF7D
:10018000704720BF7047B0FA80F0704790FAA0F037
:10019000B0FA80F0704790FAA0F0704740EA01038F
:1001A0009B0703D009E008C9121F08C0042AFAD22D
:1001B00003E011F8013B00F8013B521EF9D27047F1
:1001C000D2B201E000F8012B491EFBD27047002299
:1001D000F6E710B513460A4604461946FFF7F0FF46
:1001E000204610BD421E12F8013F002BFBD111F832
:1001F000013B02F8013B002BF9D1704730B50546B1
:100200002A460B4612F8010B13F8014B08B1A04225
:10021000F8D01CB1002802D06D1CF1E7284630BD93
:1002200010B5044604E00B7800F8013B03B1491C0B
:10023000521EF8D2204610BD421C10F8011B0029A6
:10024000FBD1801A7047034611F8012B00F8012BEF
:10025000002AF9D11846704770B50F4D00B92868CB
:10026000002412E00A4602E09E4203D0521C13789A
:10027000002BF9D1DAB2224305D02BB124B10021F1
:1002800000F8011B04E00446401C0678002EE9D16A
:100290002860204670BD00001003002070B506469F
:1002A00002F060FB046805460A220021304600F097
:1002B00049F82C6070BD30B50B4601460020202265
:1002C000012409E021FA02F59D4205D303FA02F563
:1002D000491B04FA02F52844151EA2F10102F1DCC3
:1002E00030BD2DE9F05F0546002092469B468846CA
:1002F0000646814640241BE02846414647462246A2
:1003000000F031FA53465A46C01A914110D31146B3
:100310001846224600F018FA2D1A67EB01084F46DE
:1003200022460120002100F00FFA17EB00094E4190
:10033000201EA4F10104DFDC484631462A4643462C
:10034000BDE8F09F2DE9F04791460F4680460446F0
:10035000002614F8015B2DB100F028FA0068405D1A
:10036000C007F6D12B2D02D02D2D18D0641E4A4681
:100370003946204600F01EFA27B13968A14201D162
:10038000C7F8008071054FF002040BD540420028E9
:1003900003DD02F0E7FA0460A007BDE8F08746F449
:1003A0008066E4E70028F8DA02F0DCFA04606FF017
:1003B0000040F2E72DE9FE4F804681EA0300C00FBE
:1003C0000C46009021F0004123F00045B8EB0200FC
:1003D000A94105D24046214690461C460B4602469E
:1003E00023F00040104347D0270DC7F30A00C3F3A2
:1003F0000A510290401A019040286BDAC3F31300AF
:1004000040F4801B0098924620B10023D2EB030AEF
:1004100063EB0B0B01985946C0F14002504600F0C7
:1004200093F906460D4650465946019A00F0ABF93D
:1004300010EB08006141002487EA115284EAE77357
:100440001A4340D0009A62B3019A012A4FEA075238
:1004500015DC001B61EB02014FF0004202EA07527B
:10046000CDE90042001C41F5801132462B4600F0D8
:10047000FFF903B0BDE8F08F40462146F9E7001BC5
:1004800061EB0201001C41F5801300185B4120184C
:10049000A2F5001747EB030140EAD570B6196D418C
:1004A00011E06D084FEA360645EAC0754FEA07527B
:1004B000001B61EB0201001C41F5801149084FEA65
:1004C00030000019514132462B4603B0BDE8F04FD1
:1004D00000F0BFB90098012240000023D0EB0202D7
:1004E00063EBE073009821464FEAE074B8EB00003C
:1004F00061EB0401E9E783F000435BE781F0004131
:1005000058E72DE9FE4F81EA030404F0004421F08E
:10051000004100944FF0000B23F0004350EA010427
:100520005ED052EA03045BD0C3F30A54C1F30A5508
:100530002C44A4F2F3340194A0FB0254C1F3130140
:1005400041F48011C3F3130343F4801301FB02440D
:1005500000FB034E840A970A44EA815447EA835712
:10056000A4FB076802958D0A05FB07854FEA932CCB
:1005700004FB0C542705029D4FEA065847EA16373C
:10058000B5EB08056EEB070C870E920E47EA811754
:1005900042EA8312A7FB0201B6EB0B0164EB0004F5
:1005A0002B0D43EA0C335E1844EB1C50DA465146DF
:1005B000E7FB0201C5F313044FEA0B3343EA14537C
:1005C0004FEA0432019C43EA0603A4F10C040294AE
:1005D000009CCDE900B400F04BF903B0BDE8F08F0A
:1005E00000200146F9E72DE9F04D81EA030404F00B
:1005F000004B21F0004514464FF0000A23F0004163
:1006000050EA050220D054EA01021DD0C5F30A5772
:100610000246C5F31303C1F31300C1F30A5640F4B5
:10062000801543F48013A7EB0608101BD64608F28A
:10063000FD3873EB050002D308F1010801E09218C0
:100640005B41B8F1000F03DA00200146BDE8F08DF0
:1006500000204FF48011064684460EE0171B73EB12
:10066000050705D3121B63EB050306434CEA010C97
:1006700049084FEA300092185B4150EA0107EDD17A
:1006800052EA030012D082EA040083EA050108431B
:1006900005D0101BAB4106D20122002306E0002248
:1006A0004FF0004302E06FF0010253101AEB060016
:1006B0004CEB085110EB0A0041EB0B01BDE8F04D8B
:1006C00000F0C7B8C1F30A52C1F3130140F2FF337F
:1006D00041F480119A4202DA00200146704740F24C
:1006E00033439A42A2F2334202DC524200F03BB85A
:1006F00000F02AB830B5041E71F1000404DB4FF09D
:100700000044404264EB0101141E73F1000405DB58
:100710001C464FF00043524263EB0403994208BF6A
:10072000904230BD064C074D06E0E06840F0010302
:1007300094E8070098471034AC42F6D3FFF7FCFC6E
:10074000183B0008383B0008202A04DB203A00FA56
:1007500002F1002070479140C2F1200320FA03F318
:10076000194390407047202A04DB203A21FA02F016
:100770000021704721FA02F3D040C2F120029140DB
:10078000084319467047202A06DBCB17203A41FA66
:1007900002F043EAE07306E041FA02F3D040C2F10E
:1007A00020029140084319467047000000487047F6
:1007B000083B00082DE9F05F8246007800271546C7
:1007C0008B460AF10104B946302801D09DB113E0EF
:1007D00014F8010B0127782803D0582801D045B11F
:1007E0000AE00DB1102D07D10027102514F8010BD8
:1007F00002E0082500E00A250026B0460EE005FBD1
:10080000080005FB06F1012701EB10461FFA80F8EE
:10081000B6F5803F00D3B94614F8010B294600F025
:1008200075F80028EBDABBF1000F05D00FB1641E9C
:1008300000E05446CBF80040B9F1000F06D002F0BA
:1008400091F802210160C81EBDE8F09F48EA064009
:10085000FAE710B5141E73F1000408DA401C41F1E8
:10086000000192185B411A4301D120F0010010BD34
:100870002DE9F04D92469B4611B1B1FA81F202E0AA
:10088000B0FA80F220329046FFF75EFF04460F4632
:1008900040EA0A0041EA0B0153465A46084313D086
:1008A000114653EA010019D0C8F140025046FFF743
:1008B0005AFF05460E46504659464246FFF744FF4A
:1008C000084305D0012004E020463946BDE8F08DFC
:1008D0000020054346EAE0762C4337430A98630537
:1008E000E40AA0EB08000022FD0A44EA47540A305B
:1008F00002D500200146E9E7010510196941DDE94B
:10090000084500196941BDE8F04DA2E73A2800D238
:10091000303820F02002412A01D3A2F1370088426A
:1009200001D34FF0FF30704770B58C1810F8015BA1
:1009300015F0070301D110F8013B2A1106D110F878
:10094000012B03E010F8016B01F8016B5B1EF9D17C
:100950002B0705D40023521E0DD401F8013BFAE702
:1009600010F8013BCB1A921C03E013F8015B01F86D
:10097000015B521EF9D5A142D8D3002070BD000002
:1009800018484FF0FF010170002080F309881648D5
:10099000016881F3088815484FF08051016062B604
:1009A000FEE772B6EFF3098028B1203880E8F00F37
:1009B0000F490968086000B50E4880475DF804EBF0
:1009C0000D480E490A78027009480D490A6802600C
:1009D000106890E8F00F203080F309884EF0040E84
:1009E00062B6704722ED00E00C03002004ED00E049
:1009F00004030020991700089202002093020020AF
:100A00000803002000BFFEE710B5C8210348FFF728
:100A1000DEFB00200249088010BD0000C507002051
:100A2000DC01002001460846044A1268904203D9BE
:100A3000024A1268801A00E0002070472C02002051
:100A400070B5002500BFFFF793FB054600BF0648C1
:100A5000046800BF2846FFF78FFB00BF2046FFF762
:100A6000E1FF0646304670BD3002002070B500251B
:100A7000FFF7E6FF044600BFFFF77AFB054600BF1D
:100A800000200449086000BF2846FFF775FB00BF3F
:100A9000204670BD3002002010B509480088401C77
:100AA000074908800748008818B900F039F8064956
:100AB000086004480088401C0249088010BD0000FE
:100AC00020020020220200202402002010B50F483E
:100AD0000088401E0D49088008460088A0B900F033
:100AE0001FF80B490860084600680A490968441A5B
:100AF00009480068A04201D207480460074800681E
:100B0000A04201D20548046010BD0000220200206E
:100B1000280200202402002030020020340200209D
:100B20000148406870470000001000E07047000076
:100B30002DE9F04105460024002700263FE0224A27
:100B400032F81510214A52F8250000F02AFA01283F
:100B500035D11D4A32F815101C4A52F8250000F014
:100B600069FA0446FA2C00DB2AE0962C03DBFA2C07
:100B700001DA012712E03C2C06DB962C04DA4FF058
:100B80000108701CC6B209E00A2C06DB3C2C04DA12
:100B90004FF00008701CC6B200E011E0012F0ED12A
:100BA0000B48006840000A49086008460068404455
:100BB0000860202E03DB01200649087000E0BEE734
:100BC00000BFBDE8F0810000440000206400002068
:100BD000180000201C00002010B54FF4004000F069
:100BE000B1F858B1304A1189304A106900F0F8FC68
:100BF00004202F490870400300F09EF84FF4804015
:100C000000F0A0F860B1284A9189284A906900F064
:100C1000E7FC0620264908704FF4804000F08CF86D
:100C20004FF4005000F08EF860B11F4AD1881F4A7F
:100C3000D06800F0D5FC03201D4908704FF4005027
:100C400000F07AF84FF4805000F07CF858B1164A62
:100C50009188164A906800F0C3FC0220144908707D
:100C6000C00200F069F84FF4006000F06BF858B172
:100C70000D4A51880D4A506800F0B2FC01200C4921
:100C80000870C00200F058F80A48007801280AD11C
:100C90000748007808490870002006490870044891
:100CA0000078FFF745FF10BD4400002064000020DD
:100CB00022000020210000201400002010B5802018
:100CC00000F040F858B1174A5189174A506900F0AE
:100CD00087FC052015490870802000F02DF84FF49E
:100CE000007000F02FF860B10E4A51890E4A506929
:100CF00000F076FC05200D4908704FF4007000F0FC
:100D00001BF80B48007801280AD1084800780949E7
:100D1000087000200649087004480078FFF708FFB3
:100D200010BD0000440000206400002022000020CC
:100D300021000020140000200149086070470000D5
:100D400014040140014600200022074B1B6803EAFF
:100D50000102054B14331B680B4013B10AB101208B
:100D600000E00020704700000004014000212349FA
:100D70008279002A3AD00A46126803689A430B46E1
:100D80001A600A1D126803689A430B1D1A600279E3
:100D900011440A6803681A430A60184A0832126844
:100DA00003689A43154B08331A601A1D12680368CA
:100DB0009A43124B0C331A604279102A0ED11A1F33
:100DC000126803681A430D4B08331A601A1D126823
:100DD00003681A43094B0C331A600DE00749427946
:100DE00011440A6803681A430A6005E00279114455
:100DF0000A6803689A430A607047000000040140D3
:100E000008B50121042000F01DFE20210E4800F04D
:100E1000D3F82020ADF8000010208DF80300032047
:100E20008DF802006946084800F030F84020ADF81F
:100E3000000048208DF8030003208DF80200694669
:100E4000014800F023F808BD0008014030B5002239
:100E50008B071C0F0F2303FA04F20B4B8C1053F873
:100E600024309343084C8D1044F8253023468C10D1
:100E700053F824308C07240F00FA04F42343024C67
:100E80008D1044F8253030BD080001402DE9F041B7
:100E9000024600250026002000230024002791F8A8
:100EA00003C00CF00F0591F803C00CF0100CBCF15E
:100EB000000F03D091F802C04CEA050591F800C07C
:100EC000BCF1000F31D0146800202BE04FF0010C72
:100ED0000CFA00F3B1F800C00CEA03069E4220D1E0
:100EE00083004FF00F0C0CFA03F7BC4305FA03FC28
:100EF0004CEA040491F803C0BCF1280F06D14FF06E
:100F0000010C0CFA00FCC2F814C00AE091F803C00E
:100F1000BCF1480F05D14FF0010C0CFA00FCC2F8EF
:100F200010C0401C0828D1D31460B1F800C0BCF137
:100F3000FF0F34DD546800202EE000F1080C4FF064
:100F4000010808FA0CF3B1F800C00CEA03069E424F
:100F500021D183004FF00F0C0CFA03F7BC4305FAC4
:100F600003FC4CEA040491F803C0BCF1280F05D13E
:100F700000F1080C08FA0CF8C2F8148091F803C0CC
:100F8000BCF1480F07D100F1080C4FF0010808FA36
:100F90000CF8C2F81080401C0828CED35460BDE87D
:100FA000F0810246002093680B400BB1012000E065
:100FB00000207047416170470161704710B51848C3
:100FC000007801282AD10020154908701548807939
:100FD000154908711348C079487112480079887121
:100FE00010484079C8710F48807808720D48C07861
:100FF00048720C48007888720A484078C8720F21FD
:10100000094802F071FB094908600846016808A018
:1010100001F062F80548006802F0A6F910BD000072
:101020000002002001020020C00100203401002045
:101030002573000070B505460E46002408E0601CCC
:10104000C4B2142002F058F9FA2C01DB204670BD1E
:1010500031462846FFF7A5FF0128F0D02046F6E7E5
:1010600000BFFEE70EB50121052000F0EBFC4FF4B8
:101070000060ADF8080048208DF80B0003208DF8C3
:101080000A0002A90D48FFF701FF0B210020FFF71E
:10109000DDFE4FF40060FFF74FFE4FF4006000905C
:1010A00000208DF804000C208DF8050001208DF83B
:1010B00006006846FFF75AFE0EBD0000000801401A
:1010C0000EB50121052000F0BDFC4FF48050ADF8B5
:1010D000080048208DF80B0003208DF80A0002A9B3
:1010E0000D48FFF7D3FE0C210020FFF7AFFE4FF4B1
:1010F0008050FFF721FE4FF48050009000208DF8C3
:1011000004000C208DF8050001208DF806006846CB
:10111000FFF72CFE0EBD0000000801401FB50121A5
:10112000052000F08FFC4FF40040ADF80C00482083
:101130008DF80F0003208DF80E0003A91448FFF767
:10114000A5FE0F210020FFF781FE4FF40040FFF7BE
:10115000F3FD4FF40040019000208DF808000C20B2
:101160008DF8090001208DF80A0001A8FFF7FEFDA7
:1011700028208DF8000000208DF801008DF8020075
:1011800001208DF80300684600F052FA1FBD0000F0
:10119000000801401FB50121052000F053FC80200C
:1011A000ADF80C0048208DF80F0003208DF80E00DC
:1011B00003A91348FFF76AFE07210020FFF746FE48
:1011C0008020FFF7B9FD8020019000208DF80800F5
:1011D0000C208DF8090001208DF80A0001A8FFF706
:1011E000C5FD17208DF8000000208DF801000120BA
:1011F0008DF802008DF80300684600F019FA1FBD53
:10120000000801400EB50121092000F01BFC4FF43D
:101210008040ADF8080048208DF80B0003208DF8C1
:101220000A0002A90D48FFF731FE0E210120FFF749
:101230000DFE4FF48040FFF77FFD4FF4804000909B
:1012400000208DF804000C208DF8050001208DF899
:1012500006006846FFF78AFD0EBD0000000C014045
:101260000EB50121092000F0EDFB4FF40070ADF840
:10127000080048208DF80B0003208DF80A0002A911
:101280000D48FFF703FE09210120FFF7DFFD4FF4B2
:101290000070FFF751FD4FF40070009000208DF8B2
:1012A00004000C208DF8050001208DF8060068462A
:1012B000FFF75CFD0EBD0000000C01400EB50121E2
:1012C000112000F0BFFB4FF40050ADF8080048209B
:1012D0008DF80B0003208DF80A0002A90D48FFF7D6
:1012E000D5FD0D210220FFF7B1FD4FF40050FFF7AF
:1012F00023FD4FF40050009000208DF804000C20D6
:101300008DF8050001208DF806006846FFF72EFDD8
:101310000EBD00000010014010B54D243348007888
:10132000012861D1002031490870314804783148E2
:101330000068000E304908702E480068000C4870A4
:101340002C480088000A88702A480078C87000205D
:10135000284908602849087802F0E6FA264908700A
:10136000487802F0E1FA24494870887802F0DCFA03
:1013700021498870C87802F0D7FA1F49C87008461A
:1013800000781E4948701C48807888701C48005DB1
:1013900008701C488078401C1A4988701A49085DFA
:1013A00000F0CCFB4FF4C87001F080FF1749085DD6
:1013B00000F0C4FB1248015D15480078401CC0B223
:1013C000134A1070134A115406210C4802F08CF98C
:1013D000114908600846016810A000F07DFE4D2408
:1013E0000D48006801F0C0FF10BD00001C00002087
:1013F00014000020180000201D000020CF01002054
:10140000B6000020C0010020BD000020C400002064
:10141000CC000020200300203401002025730000B0
:1014200070B504464021384801F03CF866E0374882
:101430000078002840D000203449087034480078F3
:10144000582803D032480078632812D1002031494F
:10145000087000BF05E000212D4A2F4B1B78D154A6
:10146000401C2E4909688842F5D300202B490860AA
:1014700044E0002005E000222549274B1B78CA5490
:10148000401C264909688842F5D30020234908609A
:10149000002507E0615D1C4800F07CFD032001F0A1
:1014A00005FF6D1C082DF5DB4FF47A7001F0FEFE90
:1014B00000201B49087021E0002005E00021144AAB
:1014C000154B1B78D154401C144909688842F5D348
:1014D000002012490860002507E0615D0A4800F01D
:1014E00059FD032001F0E2FE6D1C082DF5DB4FF4E1
:1014F0007A7001F0DBFE0020094908700548007889
:10150000012894D070BD000000480040180200205F
:1015100083040020D1000020E400002014020020F9
:101520001002002008B50121092000F08BFA4FF4C9
:101530000040ADF8000010208DF8030003208DF866
:10154000020069460A48FFF7A1FC0121052000F0CE
:1015500079FA4FF48070ADF8000010208DF8030088
:1015600003208DF8020069460248FFF78FFC08BD92
:10157000000C01400008014010B54FF48071144880
:10158000FFF718FD4FF400411248FFF713FD002448
:1015900008E01148015D114800F0FCFC032001F057
:1015A00085FE641C112CF4DB4FF47A7001F07EFE92
:1015B0004FF47A7001F07AFE4FF480710448FFF71F
:1015C000FBFC4FF400410348FFF7F6FC10BD0000A0
:1015D00000080140000C0140A40000200048004029
:1015E00070B505460E46002400210D4800F07EFC33
:1015F00003E00B4800F05DFC044631462846FFF747
:10160000D0FC0028F5D040F2A460844206DD40F210
:101610006C70844202DA01200249087070BD00003B
:10162000000800402100002000BFFEE770470000D6
:1016300070B5002100230F22C47804B3154C246830
:1016400004F4E064C4F5E064210AC1F10403CA4073
:10165000447804FA03F184781440214309010E4CC4
:101660000678A155047804F01F050124AC400578E4
:101670006D11AD0005F1E025C5F8004109E00478E1
:1016800004F01F050124AC40044D0678761145F89E
:10169000264070BD0CED00E000E400E080E100E0D9
:1016A00002490143024A1160704700000000FA0538
:1016B0000CED00E010B500242E480078012800D081
:1016C00010BD00BFFEF754FD044600BF2A48007855
:1016D00028B900BF2046FEF74FFD00BFF0E72648BF
:1016E0000078401E2449087008460078002805DD6F
:1016F00000BF2046FEF740FD00BFE1E71F4800782D
:10170000002805DD00BF2046FEF736FD00BFD7E705
:1017100000F062F91A4908700846007800EB4000B2
:10172000184951F820001849086008460068174910
:101730000968884205D100BF2046FEF71DFD00BFA5
:10174000BEE711480068D0F89000401C0E490968B7
:10175000C1F890000E480068401C0D4908604FF029
:1017600080500C49086000BF2046FEF705FD00BF11
:1017700000BFA5E7640200205C020020AC0200204C
:1017800093020020841F002008030020040300208F
:10179000D802002004ED00E070B52448006810B1C4
:1017A000224800688047FFF7BBF9044620480068DC
:1017B00020490968884215D01D480068D0F8980073
:1017C000201A1B490968C1F8940019480068D0F82C
:1017D0009C0017490968D1F8941008441449096815
:1017E000C1F89C0013480068C0F89840FFF73EF924
:1017F00005460F480068D0F8B400A84203D20C4850
:101800000068C0F8B4500A480068D0F8B8000A4927
:101810000968884205D20848006805490968C1F886
:10182000B80000200449086070BD0000500200208C
:101830000403002008030020A802002010B586B091
:1018400000F01EF8FFF76CF9044605A8002100918E
:10185000CDE9011403900748007800EB4000064AE8
:1018600002EB800100231A46044800F033F806B06A
:1018700010BD000092020020841F00205449434BF9
:1018800010B50348006810B101480068804710BDDA
:101890005402002010B5002400BF00BFFEF768FC12
:1018A000044600BFFFF7F8F800BF09480078401C65
:1018B0000749087000BFFFF709F900BF2046FEF78F
:1018C0005BFC00BF00BFFFF7B9FFFFF7F3FE10BDE1
:1018D0005C0200202DE9F84F04460D4616461F46CF
:1018E000DDE90BABDDF82890DDF8348000200090B6
:1018F00000BF00BFFEF73CFC009000BFFFF7CCF834
:1019000000BF2C4800882C49098888423EDA2948C3
:101910000088401C27490880284800880988884298
:1019200003DA2448008825490880254800680460B7
:1019300023480068856022480068C6602048006827
:1019400007821F480068C0F814901D480068A0F87E
:1019500018A01B480068C0F81CB01948006840680F
:101960001749086001201749088117480860486036
:10197000002000F045F81548007818B113480078A9
:10198000134908700020A8F8000008E011480088FA
:10199000401C1049088044F25360A8F8000000BFC2
:1019A000FFF794F800BF0098FEF7E6FB00BF00BF0A
:1019B000BDE8F88F70020020F439000872020020A0
:1019C00068020020841F0020B01E00209202002028
:1019D000940200207402002070B50025074C03E03B
:1019E00005F12000C5B2241D20680028F8D0206829
:1019F000FEF7C9FB2844C5B2284670BD3802002056
:101A000030B5420900F01F030121C3F11F04A140BA
:101A1000034C54F822400C43014D45F8224030BDA0
:101A20003802002029B1064AD2690243044BDA6128
:101A300004E0034AD2698243014BDA617047000037
:101A40000010024029B1064A92690243044B9A6190
:101A500004E0034A92698243014B9A617047000097
:101A60000010024030B500210022002400232D4D3B
:101A70006D6805F00C0121B1042905D0082923D196
:101A800005E0294D056022E0274D05601FE0254D4A
:101A90006D6805F47012234D6D6805F480340225DD
:101AA00005EB92421CB9214D554305600BE01D4DDD
:101AB0006D6805F400351DB11C4D5543056002E00D
:101AC000194D5543056002E0174D056000BF00BF8A
:101AD000144D6D6805F0F0010909154D6B5C056842
:101AE000DD4045600F4D6D6805F4E061090A104D59
:101AF0006B5C4568DD4085600A4D6D6805F460519A
:101B0000C90A0B4D6B5C4568DD40C560054D6D68CD
:101B100005F44041890B074D6B5CC568B5FBF3F5D7
:101B2000056130BD0010024000127A0000093D003E
:101B300000000020100000207047000070B504462F
:101B400020211C48FFF738FAC82001F0AFFB202104
:101B50001848FFF72FFA022001F0A8FB002522E029
:101B600020211448FFF728FA04F0010060B140F288
:101B70006C7001F0C1FB20210E48FFF71BFA4FF4F7
:101B80002F7001F0B9FB0BE04FF42F7001F0B4FBA4
:101B900020210848FFF70EFA40F26C7001F0ACFB10
:101BA0006410681CC5B2082DDADB20210148FFF75C
:101BB00003FA70BD0008014010B500F001F810BD37
:101BC0000CB50020019000903348006840F480304C
:101BD0003149086000BF3048006800F400300090D0
:101BE0000198401C0190009818B90198B0F5A06FB9
:101BF000F1D12948006800F4003010B101200090B4
:101C000001E0002000900098012843D1234800689B
:101C100040F01000214908600846006820F00300E9
:101C200008600846006840F0020008601A484068F2
:101C3000194948600846406848600846406840F4D2
:101C4000806048600846406820F47C104860084680
:101C5000406840F4E81048600846006840F0807032
:101C6000086000BF0C48006800F000700028F9D040
:101C70000948406820F0030007494860084640686A
:101C800040F00200486000BF0348406800F00C00CC
:101C90000828F9D10CBD00000010024000200240CD
:101CA00008B501210920FFF7CDFE0120ADF80000A5
:101CB00010208DF8030003208DF8020069460248C9
:101CC000FFF7E4F808BD0000000C0140042808D12B
:101CD0004FF0E021096941F004014FF0E022116169
:101CE00007E04FF0E021096921F004014FF0E02204
:101CF0001161704710B504466FF00400FFF7E6FF6E
:101D0000E11704EB5171C1F3C701074A1170104686
:101D1000007800EB4001C1EBC0104FF6FF7101EA03
:101D2000C0000249088010BDD6010020D801002063
:101D300010B51348006840F00100114908600846DA
:101D40004068104908400E494860084600680E493E
:101D500008400B4908600846006820F480200860AD
:101D60000846406820F4FE0048604FF41F00886079
:101D7000FFF722FF4FF000600449086010BD00002B
:101D8000001002400000FFF8FFFFF6FE08ED00E043
:101D90007FB505460C4601210220FFF743FEADF852
:101DA0000850ADF804400020ADF80A00ADF8060078
:101DB00001A90B4800F09CF81D208DF800000220BE
:101DC0008DF801008DF8020001208DF803006846AF
:101DD000FFF72EFC0121024800F05FF87FBD0000F4
:101DE0000004004010B50D48007890B101210C4866
:101DF00000F062F868B148F69F4142F20F7000F0BF
:101E000017F80120074908700748016807A000F08B
:101E100063F90121024800F03DF810BDFF000020E9
:101E200000080040CF00002034010020257300008E
:101E30007FB505460C4601210420FFF7F3FDADF800
:101E40000850ADF804400020ADF80A00ADF80600D7
:101E500001A90F4800F04CF8012211460C4800F08F
:101E60003CF801210A4800F015F81E208DF800000A
:101E700000208DF801008DF8020001208DF803008C
:101E80006846FFF7D5FB0121014800F006F87FBD49
:101E900000080040CA430282704721B1028842F024
:101EA0000102028004E002884FF6FE731A400280AD
:101EB00070470146888C704730B5024600200023E9
:101EC0000024158A05EA0103958905EA010413B186
:101ED0000CB1012000E0002030BD1AB183890B4312
:101EE000838102E083898B438381704781847047BB
:101EF000002202881D4B98420ED01D4B98420BD0F9
:101F0000B0F1804F08D01B4B984205D01A4B984235
:101F100002D01A4B984204D14FF68F731A404B8867
:101F20001A43174B984207D0164B984204D04FF6ED
:101F3000FF431A40CB881A4302808B8883850B8825
:101F400003850A4B98420BD0094B984208D00E4BA0
:101F5000984205D00D4B984202D00D4B984201D1CA
:101F60000B7A03860123838270470000002C014016
:101F7000003401400004004000080040000C004014
:101F800000100040001400400040014000440140A7
:101F90000048014070B504460D462946204600F031
:101FA00072FB00BF4021204600F0A0FA0028F9D0C3
:101FB00070BD000010B540F22551124800F0A3FAA0
:101FC00088B140F225510F4800F075FA0D4800F035
:101FD00055FBC1B20C4802680068401C0A4B1860EF
:101FE0000A4881540DE040F22441064800F08BFA83
:101FF00038B1012006490870024800880148001DD8
:10200000008810BD003801400C0200201F04002091
:102010001002002010B586B0044601210420FFF70D
:1020200011FD01218803FFF70DFD01210846FFF78F
:1020300009FD4FF40070ADF8140003208DF8160070
:1020400018208DF8170005A92148FEF71FFF4FF44F
:102050008060ADF8140004208DF8170005A91C4815
:10206000FEF714FF01940020ADF80800ADF80A0057
:10207000ADF80C00ADF810000C20ADF80E0001A971
:10208000144800F08FFA0121124800F023FA402191
:10209000104800F007FA25208DF8000002208DF886
:1020A000010000208DF8020001208DF80300684631
:1020B000FFF7BEFA012240F22551064800F04DFA22
:1020C000012240F22441034800F047FA06B010BD57
:1020D00000080140003801400FB410B5B4B000242E
:1020E00037A80090C92101A8009B369A00F024FC73
:1020F0000EE02046621CD4B201AA115C0B4800F02D
:10210000C2FA00BF4021094800F0F0F90028F9D0D8
:10211000C82C04DA01A8FEF78FF8A042E9D8002005
:10212000009034B010BC5DF814FB00000038014092
:1021300010B540F22551204800F0E5F9002839D0CB
:102140001D4800F09BFAC4B2242C02D100201B4988
:1021500008801A4801880088401C184A10801848D6
:102160004454007824281ED1154800794D281AD1EE
:1021700013484079432816D10A2C14D15021114814
:10218000FEF725F80D4802880D490E48FEF706F8BF
:1021900001200C4981F85000002008490880C8211E
:1021A0000748FEF714F805480088C82802DBC82055
:1021B0000249088010BD000000440040DC010020FE
:1021C000C50700203807002010B586B0044601215D
:1021D0004804FFF727FC01210420FFF733FC04200B
:1021E000ADF8140003208DF8160018208DF81700A4
:1021F00005A91D48FEF74AFE0820ADF8140004208A
:102200008DF8170005A91848FEF740FE26208DF826
:10221000000002208DF8010001208DF802008DF8E9
:1022200003006846FFF704FA01940020ADF80800A7
:10223000ADF80A00ADF80C00ADF810000C20ADF8B8
:102240000E0001A9094800F0ADF9012240F2255124
:10225000064800F082F90121044800F03BF9FEF73E
:10226000D3FB06B010BD0000000801400044004050
:102270000FB410B5B4B0002437A80090C92101A84C
:10228000009B369A00F058FB0EE02046621CD4B248
:1022900001AA115C0B4800F0F6F900BF4021094883
:1022A00000F024F90028F9D0C82C04DA01A8FDF7C1
:1022B000C3FFA042E9D80020009034B010BC5DF804
:1022C00014FB00000044004010B540F225511248B4
:1022D00000F019F988B140F225510F4800F0EBF8F1
:1022E0000D4800F0CBF90D490D4A126888540C488E
:1022F0000068401C0A4908600DE040F2244106488D
:1023000000F001F938B10120064908700248008840
:102310000148001D008810BD0048004083040020D3
:10232000140200201802002010B586B004460121D6
:102330000820FFF787FB01218804FFF773FB4FF4A8
:102340008060ADF8140003208DF8160018208DF879
:10235000170005A92148FEF799FD4FF40060ADF87C
:10236000140004208DF8170005A91C48FEF78EFD07
:1023700001940020ADF80800ADF80A00ADF80C009B
:10238000ADF810000C20ADF80E0001A9144800F0C3
:1023900009F90121124800F09DF84021104800F091
:1023A00081F827208DF8000003208DF8010000201F
:1023B0008DF8020001208DF803006846FFF738F918
:1023C000012240F22551064800F0C7F8012240F2F0
:1023D0002441034800F0C1F806B010BD000C0140D4
:1023E0000048004010B515480078012824D1144851
:1023F0000078144988701448006803280CD10846F6
:10240000807810B90120FFF799FB0E4880780128E9
:1024100002D11720FFF792FB0B480068052805D171
:102420000B20084908700846FEF7FAFF0020034910
:10243000087004494870887010BD0000F400002046
:102440001801002009010020E80000200FB410B599
:10245000B4B0002437A80090C92101A8009B369A87
:1024600000F06AFA0EE02046621CD4B201AA115CA8
:102470000B4800F008F900BF4021094800F036F889
:102480000028F9D0C82C04DA01A8FDF7D5FEA04237
:10249000E9D80020009034B010BC5DF814FB0000B7
:1024A0000048004001F40072B2F5007F00D100BF87
:1024B000CA430280704710B50022002340F66A1418
:1024C000A14200D100BF0A1201249440A3B2DC4310
:1024D000048010BD21B1828942F40052828104E05F
:1024E00082894DF6FF731A408281704702460020B0
:1024F000B1F5007F00D100BF13880B400BB1012064
:1025000000E00020704770B502460024002300253B
:10251000002040F66A16B14200D100BFC1F3421557
:1025200001F01F03012606FA03F3012D02D196895B
:10253000334006E0022D02D1168A334001E0968A2C
:1025400033400C12012606FA04F41688344013B105
:102550000CB1012000E0002070BDF0B5034600245E
:1025600000260025002040F66A17B94200D100BFBE
:102570001846C1F3421401F01F06012707FA06F5B9
:10258000012C01D10C3004E0022C01D1103000E00C
:1025900014301AB107682F43076002E00768AF43A1
:1025A0000760F0BD2DE9F04786B005460E460024D1
:1025B000A24600BFA1460027B08900B100BF2F4648
:1025C0002C8A4CF6FF700440F08804432C82AC89BE
:1025D0004EF6F3100440B0883189084371890843EE
:1025E0000443AC81AC8A4FF6FF400440B0890443F9
:1025F000AC8201A8FFF736FA1F48874202D1DDF806
:1026000010A001E0DDF80CA0A88900F4004040B162
:102610000AEBCA0000EB0A1031684900B0FBF1F880
:1026200007E00AEBCA0000EB0A1031688900B0FB32
:10263000F1F86420B8FBF0F004012009642101FBEB
:102640001089A88900F4004040B1322000EBC90095
:10265000B0FBF1F000F00700044308E0322000EB8B
:1026600009106421B0FBF1F000F00F0004432C814D
:1026700006B0BDE8F08700000038014001468888B8
:10268000C0F308007047C1F308028280704700BFA2
:10269000FEE7000010B550480078002872D00020F6
:1026A0004D4908704D480078162845D14B48C079EF
:1026B0004D2841D14A488078401C49498870012002
:1026C000484908704548407848704448C078887048
:1026D0001720FFF733FA0621424801F005F8424976
:1026E00008600846016841A0FFF7F6FC002404E0FA
:1026F0004FF47A7000F0DAFD641C052CF8DD002040
:1027000003E00021354A1154401C394909688842C8
:10271000F7D30020364908604FF4FA7000F0C6FD88
:10272000344841783448FFF735FC2F48006800F002
:102730001BFE642000F0BAFD284800780B2839D130
:102740002648C0794D2835D124484078244948701E
:102750000F21234800F0C8FF284908600846016897
:1027600022A0FFF7B9FC002404E04FF47A7000F0D7
:102770009DFD641C052CF8DD2048006800F0F4FD88
:10278000002004E027E00021144A1154401C18499D
:1027900009688842F7D30020154908604FF4FA70A1
:1027A00000F084FD134801781348FFF7F3FB642021
:1027B00000F07CFD0E48006808280CD3002003E0E0
:1027C0000021064A1154401C094909688842F7D380
:1027D00000200749086010BD180200208304002073
:1027E000C0010020CF01002034010020257300002B
:1027F0001402002011010020004800403801002090
:1028000010B53248007800285ED000202F490870AB
:102810002FA13048FDF7F2FC00B301202E490870CB
:102820002BA12C48FDF7EAFC2C490860062208463B
:102830000168491C2A48FDF7F3FC2948FDF7FCFC18
:10284000400828490860084627490268244801F0E2
:102850007FF82548FDF722FD2349087023A11D4874
:10286000FDF7CCFCC8B122A11A48FDF7C7FC2149ED
:102870000860214801681F480068FDF7EDFC1F490A
:102880000860102208460168491C1D48FDF7C8FC75
:102890001B48FDF703FD1B49086000201A4908602A
:1028A00009E000200B49184A12688854164800684D
:1028B000401C15490860144800681449096888429A
:1028C000EFD300201149086010BD00001002002065
:1028D0003A0000001F040020F4000020D400002073
:1028E000AF050020EC0000201801002061740000FA
:1028F0003D000000D800002014010020DC00002072
:10290000B9050020E8000020040100200C0200208E
:102910000FB4084B10B504A902AA039800F0F8F808
:10292000044602A9002000F095FC204610BC5DF88A
:1029300014FB0000553200087CB5044600201D46FB
:10294000164600290BD0491ECDE90041044B6A46CA
:102950002946304600F0DCF8009A002111707CBD59
:102960003F320008004870471C03002002E008C8FE
:10297000121F08C1002AFAD170477047002001E0F9
:1029800001C1121F002AFBD1704700002DE9FF5F33
:1029900082B00021DDE90430020DDDF840B00343D0
:1029A00018D044F61050A2F2FF3242431514119889
:1029B00001281FD0A5EB0B00401C5FEA000A4FF076
:1029C00000064E4FDFF83891B046504615D5CAF193
:1029D000000413E0119801244AA3012801D16FEAF1
:1029E0000B010298119AC0E90031C0E9024206B019
:1029F000BDE8F09FCBF10000DFE704460021404A2C
:102A0000491842EB0450CDE9001012E0E00707D06E
:102A100032463B4640464946FDF773FD80468946AF
:102A200032463B4610461946FDF76BFD06460F46FB
:102A30006410002CEAD1DDE90401DDE90023BAF1DC
:102A4000000F06DAFDF75DFD42464B46FDF759FDE6
:102A500005E0FDF7C8FD42464B46FDF7C4FD0446C0
:102A60000E460022284BFDF745FE03D84FF0FF30FD
:102A7000014607E00022254B20463146FDF79AFC2F
:102A8000FDF720FE102409E0002C0ADB0A220023B7
:102A9000FDF727FC039B30321A55641E50EA0102F1
:102AA000F2D1641C039AC4F111031444119A012A4F
:102AB00003D0012208430DD10AE0084304D00020CE
:102AC0004FF0110B119072E7A3EB0B056D1E0DE09B
:102AD0005B4504DD4FF0000205F1010504E003DA77
:102AE0004FF00002A5F10105002AECD002981199DF
:102AF000C0E90231C0E9004579E700000000144058
:102B00000000F03F300000000000F0430000E03F14
:102B10002DE9FF4F95B09B468946064600250FE2FA
:102B2000252877D100242746F84A0121059400E0A2
:102B3000044316F8013F203B01FA03F01042F7D19D
:102B400030782A2811D06FF02F033078A0F13002AE
:102B5000092A16D8059A44F0020402EB820203EB1C
:102B600042021044761C0590EFE759F8042B0592B9
:102B7000002A03DA504244F40054059044F0020461
:102B8000761C30782E2816D116F8010F44F0040474
:102B90002A280DD06FF02F023078A0F13003092BD6
:102BA00009D807EB870302EB4303C718761CF3E74A
:102BB00059F8047B761C30786C280FD006DC4C2842
:102BC00017D068280DD06A2814D104E0742810D0DA
:102BD0007A280FD10DE044F400140AE044F4801484
:102BE00001E044F440147278824202D104F580146A
:102BF000761C761C307866280BD013DC582877D0EA
:102C000009DC002875D04528F6D04628F4D047289E
:102C10001AD19DE118E0632835D0642879D0652861
:102C200012D195E1702873D008DC6728F1D06928AB
:102C30006FD06E280DD06F2806D1B5E073282CD048
:102C4000752875D0782874D05A46179990476D1C0E
:102C500075E1C4F30250022809D003280DD0D9F839
:102C6000001004280DD00D6009F1040967E1D9F8BE
:102C70000010EA17C1E90052F6E7D9F800100D80FC
:102C8000F2E70D70F0E719F8041B8DF80010002032
:102C90008DF80100EA46012003E059F804AB4FF03B
:102CA000FF3061074FF0000102D40DE008F101018F
:102CB0008846B9420FDA8045F8DB1AF80810002977
:102CC000F4D108E008F1010188468142FADB1AF8E4
:102CD00008100029F6D105985B46A0EB08072146AD
:102CE0003846179A00F094FA284400EB080507E0EC
:102CF0004DE029E10DE01AF8010B5A46179990476B
:102D0000B8F10108F7D25B4621463846179A13E11D
:102D100042E00A220092C4F302524FF0000A022A53
:102D200008D059F804CB032A4FEAEC710AD00DE021
:102D300029E02AE009F1070121F00702F2E802C1C7
:102D4000914609E00FFA8CFC4FEAEC71042A03D19A
:102D50004FFA8CFC4FEAEC71002907DA0A46002191
:102D6000DCF1000C61EB02012D2202E0220504D50A
:102D70002B228DF80420012203E0E20701D020225B
:102D8000F7E7904659E00A2102E010220DE01021F9
:102D90004FF0000A00910BE010224FF0000A44F0BF
:102DA00004040827009203E008224FF0000A009272
:102DB000C4F30252022A05D059F804CB0021032A99
:102DC00008D009E009F1070121F00702F2E802C189
:102DD000914605E01FFA8CFC042A01D10CF0FF0C8F
:102DE0004FF00008220728D5702806D0009B83F0FA
:102DF000100353EA0A0305D00EE040228DF80420A8
:102E0000012208E05CEA010206D030228DF804209D
:102E10008DF8050002229046009B83F0080353EAD8
:102E20000A030AD15CEA010201D1620705D530220A
:102E30008DF804204FF001087F1E582804D034A0DC
:102E400003900EA802900DE036A0F9E753466046C5
:102E5000009AFDF746FA84460398825C0298401E69
:102E6000029002705CEA0100F0D1029806A9081AEB
:102E700000F1200A600702D524F4803400E0012725
:102E8000574502DDA7EB0A0000E0002000EB0A0135
:102E9000009005984144401A0590E00306D45B4633
:102EA0002146179A059800F0B3F90544002706E07B
:102EB00001A85A46C05D179990476D1C7F1C474575
:102EC000F6DBE0030CD55B462146179A059800F027
:102ED0009FF9054404E030205A46179990476D1C2D
:102EE0000099481E00900029F5DC08E0029802993C
:102EF0005A460078491C0291179990476D1CBAF107
:102F00000001AAF1010AF1DC65E1000009280100D5
:102F1000303132333435363738396162636465664F
:102F20000000000030313233343536373839414211
:102F3000434445460000000000F058F90544761C63
:102F4000307800287FF4ECAD19B02846BDE8F08F4A
:102F5000620700D4062709F1070222F0070CFCE8FB
:102F60000223E14603F000485FEA080C02D00FF2AA
:102F7000702C0DE05FEA045C02D50FF2682C07E0CC
:102F80005FEAC47C02D00FF2602C01E0AFF2700C5B
:102F90004FF0FF3823F00043CDF850C065280CD027
:102FA00006DC452809D046281DD047283DD13DE004
:102FB000662818D067287ED138E00021112F01DB68
:102FC000112000E0781CCDE9000106A90EA8FFF74A
:102FD000DDFCDDE90F010E9A03910021009207F15B
:102FE000010A04914DE04FF000400097CDE9011037
:102FF00006A90EA8FFF7CAFCDDE90F0203920E9B9B
:1030000011990022DDF80CA00093049211B9791CEB
:1030100000EB010AB7EB0A0004D4C0F1FF3007F15E
:10302000010A0490AAEB0700019044E0012F00DAA6
:1030300001270021112F01DD112000E03846CDE9E4
:10304000000106A90EA8FFF7A1FCDDE90F010E9A09
:103050000391002104910092BA4621070CD40399F0
:10306000514500DA8A46BAF1010F05DD009AAAF14E
:103070000101515C302908D0B84202DA10F1040F86
:1030800006DA0121CDE9011015E0AAF10101E9E715
:10309000002805DC049901440491AAEB000102E038
:1030A000411C514500DD8A460499401A401C01909C
:1030B0004FF000400290200704D40198504501DBF6
:1030C000CDF8048000208DF84F0002980DF14F07D5
:1030D000B0F1004F25D02B200E9002984FF002083F
:1030E00000280CDA404202902D200E9007E00A21C1
:1030F0000298FDF7E0F83031029007F8011DB8F1B1
:103100000001A8F10108F2DC02980028EFD1791E35
:103110000E980870307800F0200040F0450007F865
:10312000020D12A8C01B00F107081498007800B126
:10313000012000EB0A01019801EBE0710598414480
:10314000401A401E0590E00306D45B462146179ABC
:10315000059800F05DF805441498007818B15A46B7
:10316000179990476D1CE00324D55B462146179ABA
:10317000059800F04DF805441CE00498002807DB92
:10318000DDE90301884203DD0098405C179901E006
:10319000179930205A469047049805F10105401CC4
:1031A00004900198401E019004D12E205A46179990
:1031B00090476D1CBAF10001AAF1010ADDDC05E0BF
:1031C00017F8010B5A46179990476D1CB8F100018A
:1031D000A8F10108F4DC5B462146179A0598ABE696
:1031E0002D0000002B000000200000002DE9F04120
:1031F000044600251E461746880404D405E03946D7
:103200002020B0476D1C641EF9D52846BDE8F0812A
:103210002DE9F041044600251E469046C80301D51D
:10322000302700E02027880404D505E041463846D1
:10323000B0476D1C641EF9D52846BDE8F0814A6888
:10324000002A06D00A68531C0B6010704868401EA4
:10325000486070470A68531C0B601070704700008C
:1032600010B50020104981F8500081F8510081F814
:10327000780050210C48FCF7AAFF0B48523000217F
:1032800001604160018181720B3001604160018108
:1032900081725D38A0F868106A3001604160816019
:1032A0006A38A0F8761010BD380700200146114A90
:1032B00012884A434FF0E0235A6100229A611A466D
:1032C000126942F001021A6100BF4FF0E02210695A
:1032D00000F001021AB100F48032002AF5D04FF05C
:1032E000E022126922F001024FF0E0231A6100226D
:1032F0009A617047D80100200146114A12784A436A
:103300004FF0E0235A6100229A611A46126942F096
:1033100001021A6100BF4FF0E022106900F00102C3
:103320001AB100F48032002AF5D04FF0E022126981
:1033300022F001024FF0E0231A6100229A617047E7
:10334000D601002010B5044604E0214603A0FFF793
:103350007DF800E0F9E700BF10BD00004552524F74
:103360005225640D0A00000010B5002821D0114B31
:103370000022001F196803E0814203D80A46496809
:103380000029F9D152B11368841A9C4204D1006813
:1033900018441060104602E0506000E0186039B137
:1033A00002680B1A934203D10B681A440260496801
:1033B000416010BD1403002001460F2000EB4100C6
:1033C000C01C704710B52AA0FEF752FF3220FFF74D
:1033D00093FF27A0FEF74CFF3220FFF78DFF28A0B8
:1033E000FEF746FF3220FFF787FF25A0FEF740FFDC
:1033F0003220FFF781FF28A0FEF73AFF3220FFF7C7
:103400007BFF25A0FEF734FF3220FFF775FF28A0D1
:10341000FEF72EFF3220FFF76FFF2BA0FEF728FFED
:103420003220FFF769FF2EA0FEF722FF3220FFF7C0
:1034300063FF2BA0FEF71CFF3220FFF75DFF2DA0DE
:10344000FEF716FF3220FFF757FF2AA0FEF710FF06
:103450003220FFF751FF06A0FEF70AFF3220FFF7E8
:103460004BFF03A0FEF704FF3220FFF745FF10BD1E
:103470002443435349522C332C332A34380D0A0049
:103480002443434D53472C4747412C312C302C2AA1
:1034900031390D0A000000002443434D53472C47A7
:1034A00053412C312C302C2A30440D0A00000000EE
:1034B0002443434D53472C4753562C312C302C2A50
:1034C00031410D0A00000000202443434D53472C96
:1034D0004753562C312C302C2A31410D0A00000064
:1034E000244343494E562C3130302C2A36300D0AB5
:1034F000000000002443434D53472C524D432C31D0
:103500002C34302C2A33300D0A0000004820FEF7FE
:10351000F1FB4FF4A060FEF7C3F84FF4E130FEF783
:1035200079FD4FF41650FEF7FFFEFDF733FEFDF771
:10353000F5FDFDF7C3FEFDF793FEFDF7C1FDFDF7B9
:1035400091FDFDF75FFEFEF7ABFBFDF7EBFFFEF72E
:1035500013F8FDF755FC3220FFF7CEFE4FF416505E
:10356000FEF732FEFFF77CFE1CA0FEF781FE322044
:10357000FFF7C2FE19A0FEF77BFE3220FFF7BCFE6C
:103580004FF4E130FEF720FE3220FFF7B5FE40F2A7
:10359000671142F20F70FEF74BFC472142F20F70A9
:1035A000FEF7F6FBFFF70EFFE720FEF7C7FAC8208D
:1035B000FFF77CFE0120FEF7C1FA0DE0FFF720F9CE
:1035C000FDF7FCFCFFF766F8FEF70CFFFDF7A4FE25
:1035D00000F09EF800F010F9F0E7000024434343A8
:1035E00041532C312C352A35350D0A00F0B50B30FE
:1035F000154D20F007010024144A0FE003688B42A8
:103600000BD38B4205D95E1A43184768C3E900679C
:1036100000E04368136002C004E0021D1068002847
:10362000ECD12046002802D1286808B10020F0BD66
:10363000064A07481060074A121A22F00702C0E93A
:10364000002401202860D7E718030020140300207D
:1036500064230020602500202DE9FF4706468A46A6
:1036600014461BA30FCB8DE80F00012000EB44088C
:103670002046FFF7A1FE81464046FFF7B7FF074609
:103680000021A8F101003954002507E01AF80520AF
:1036900007EB450012A1FFF73BF96D1CA542F5DBD6
:1036A00069463046FCF7CFFD39463046FCF79AFDB7
:1036B0003846FFF759FE0D21A9F1030031540A21C4
:1036C000401C31540021401C3154BDE8FF870000EC
:1036D00061742B73656E643D6C6F72613A313A00B0
:1036E00025303258000000002DE9F04105460C4617
:1036F0002046FFF761FE06463046FFF777FF074694
:10370000224629463846FFF7A7FF3846BDE8F08134
:10371000F8B50026364890F85000002867D0002001
:10372000334981F8500000BF5FE04EB931A1304805
:10373000FCF764FD041E56D10120FFF703FE52E0A2
:10374000641C2CA12046FCF759FD051E48D0072E0D
:103750002ED2DFE806F02D040B11181F26002A1BBD
:10376000214623485230FCF719FD22E02A1B21464E
:103770006846FCF713FD1CE02A1B21461C485D30FF
:10378000FCF70CFD15E02A1B214619486830FCF7B0
:1037900005FD0EE02A1B214615486A30FCF7FEFCA9
:1037A00007E02A1B214612487630FCF7F7FC00E0C0
:1037B00000BF00BF2C4601200D4981F851009DF843
:1037C0000000412803D1012081F8780007E09DF82E
:1037D0000000562803D10020054981F8780002E056
:1037E0000220FFF7AFFD701CC6B2062E9DDDF8BDAE
:1037F000380700202C00000010B53D4890F851001B
:10380000002874D000203A4981F85100084690F809
:10381000780000286BD00120364908700020344918
:1038200081F8780034A132485D30FCF7E7FC334979
:103830000860042208460168491C3148FCF7F0FC86
:103840002F48FCF72BFD2F49088008460088000A06
:103850002D4908702B48007848702C48016824488E
:103860005D30FCF7F9FC2A49086008460068FCF75F
:1038700015FD2849088008460088000A22498870FA
:1038800024480078C8701CA119486A30FCF7B6FCBF
:103890001A490860042208460168491C1E48FCF7C2
:1038A000BFFC1D48FCF7FAFC1C490880084600884C
:1038B000000A1549087119480078487113480168D1
:1038C0000B486A30FCF7C8FC1549086008460068D8
:1038D000FCF7E4FC1349088008460088000A0A49FE
:1038E000887110480078C8710148FEF7AFFD10BD1F
:1038F00038070020000200202E000000F401002004
:10390000B1070020F801002001020020E80100209A
:10391000EC010020FA010020BB070020FC01002080
:10392000F0010020FE010020014601F0550040009A
:1039300001F0AA0240EA620101F03300800001F0C8
:10394000CC0240EAA201080140EA2110C0B270474F
:103950002DE9F04389B006460F461546202218A1EE
:1039600001A8FCF71BFC29463846FCF730FC002474
:103970001AE0305D00F01F0080F01008601C305C21
:1039800000F01F0080F0100901A911F808100907C4
:1039900001AA12F8092042EA1161204604EBD07214
:1039A0005210B954A01CC4B2B4EB450F04D2304637
:1039B000FCF742FCA042DCD809B0BDE8F08300006F
:1039C00000010203040506070809000000000000CA
:1039D000000A0B0C0D0E0F0000000000000000009C
:1039E000580900200C0000008000000000020000C8
:1039F000580B00200A00000040010000980C002035
:103A00000C0000008000000000020000980E002062
:103A1000800000000002000064000000400600007A
:103A2000981000200B0000000A000000D8160020AB
:103A30000C000000800000000002000040000000B8
:103A4000E80300000A000000D81800200C00000065
:103A5000800000000002000011000000880000004B
:103A60000B0000000A000000601B00200C0000009A
:103A7000800000000002000011000000880000002B
:103A800090140000004040404040404040404141D0
:103A90004141414040404040404040404040404023
:103AA00040404040400502020202020202020202BD
:103AB00002020202022020202020202020202002BA
:103AC000020202020202909090909090101010104A
:103AD00010101010101010101010101010101010E6
:103AE000020202020202888888888888080808087A
:103AF0000808080808080808080808080808080846
:103B00000202020240000000853A00082C0000007A
:103B1000000000002E000000383B000800000020DC
:103B20002003000028090008503C00082003002062
:103B3000402600007C290008412D010203040430C6
:103B40000A06070809020406084DA4EE21DE320227
:103B50003208321032203A8003217A40201A081CA1
:103B600012201A801619143A0132200A0102091192
:103B70001213150714140C01405A08049A100C294A
:103B8000181910295B5A04042963690C697337AA50
:103B90005A01C801C8520712125811B30410088004
:103BA0004030201214130F1110151601112A0101B3
:103BB0001934123B2A0804012029D7192F61100B50
:103BC000163D614E4E01C85858630A210C3C4128ED
:103BD0000A61742B6A6F696E0D0A0A681173656E4B
:103BE000643D6C6F72613A313A35413030164809A4
:103BF000745F636F6E6669671C390C0D10726D3AE5
:103C000031352D3030383001181732653365303496
:103C100064313039393830643132303163383861A9
:103C2000301D4F4B204A6F3809205375636365730D
:103C30007312212280180D2E3E04D109980D120115
:103C4000C88A40D20313C85B0A2514D401FF0111AE
:0400000508000131BD
:00000001FF
